:100000000C9434000C9446000C9446000C9446006A
:100010000C9446000C9446000C9446000C94460048
:100020000C9446000C9446000C9446000C94460038
:100030000C9446000C9446000C9446000C94460028
:100040000C9446000C9446000C9446000C94460018
:100050000C9446000C9446000C9446000C94460008
:100060000C9446000C94460011241FBECFEFD8E03C
:10007000DEBFCDBF21E0A0E0B1E001C01D92A13004
:10008000B207E1F70E9470000C9487000C94000006
:1000900081E08093000191E01EC085B1880F85B991
:1000A0002FE936E881E0215030408040E1F700C080
:1000B00000001F9B0AC095B92FE936E881E0215066
:1000C00030408040E1F700C000004A9904C010921F
:1000D000000115B808951F9BE0CF1092000108950C
:1000E0008FEF84B98BB186608BB949990CC0289A7F
:1000F0002FE986E891E0215080409040E1F700C070
:1001000000000E9448004A99F0CF15B8EECFF8944D
:02011000FFCF1F
:00000001FF
